{
  "contractName": "Simple2",
  "abi": [
    {
      "anonymous": false,
      "inputs": [
        {
          "indexed": true,
          "internalType": "address",
          "name": "from",
          "type": "address"
        },
        {
          "indexed": false,
          "internalType": "uint256",
          "name": "amount",
          "type": "uint256"
        }
      ],
      "name": "Receive",
      "type": "event"
    },
    {
      "anonymous": false,
      "inputs": [
        {
          "indexed": false,
          "internalType": "string",
          "name": "description",
          "type": "string"
        }
      ],
      "name": "ReturnNumber",
      "type": "event"
    },
    {
      "stateMutability": "payable",
      "type": "receive",
      "payable": true
    },
    {
      "inputs": [],
      "name": "return99",
      "outputs": [],
      "stateMutability": "nonpayable",
      "type": "function"
    }
  ],
  "bytecode": "0x608060405234801561001057600080fd5b506101b1806100206000396000f3fe6080604052600436106100225760003560e01c80634872e5e81461007c57610077565b36610077573373ffffffffffffffffffffffffffffffffffffffff167fd6717f327e0cb88b4a97a7f67a453e9258252c34937ccbdd86de7cb840e7def33460405161006d91906100e3565b60405180910390a2005b600080fd5b34801561008857600080fd5b50610091610093565b005b7f30b3baa76db8d72e4e2a81fdbc65216f9a837ae577525d2e0a0bd4ea787084076040516100c09061015b565b60405180910390a1565b6000819050919050565b6100dd816100ca565b82525050565b60006020820190506100f860008301846100d4565b92915050565b600082825260208201905092915050565b7f546869732069732072657475726e393900000000000000000000000000000000600082015250565b60006101456010836100fe565b91506101508261010f565b602082019050919050565b6000602082019050818103600083015261017481610138565b905091905056fea264697066735822122031734730a04f76ad4f70ba5fa81128e95f93411c5ff46fbca7a1924eea330c5664736f6c634300080d0033",
  "immutableReferences": {},
  "source": "// SPDX-License-Identifier: GPL-3.0\npragma solidity >=0.7.0 <0.9.0;\n\n\ncontract Simple2 {\n \n    event Receive(address indexed from, uint amount);\n    event ReturnNumber(string description);\n    \n    receive() external payable{\n        emit Receive (msg.sender , msg.value);\n    }\n    function return99() public {\n        emit ReturnNumber(\"This is return99\");\n    }\n}\n",
  "sourcePath": "D:\\sol\\truffleExample\\contracts\\Simple2.sol",
  "compiler": {
    "name": "solc",
    "version": "0.8.13+commit.abaa5c0e.Emscripten.clang"
  },
  "schemaVersion": "3.4.15",
  "updatedAt": "2023-09-08T07:34:25.765Z",
  "networkType": "ethereum",
  "devdoc": {
    "kind": "dev",
    "methods": {},
    "version": 1
  },
  "userdoc": {
    "kind": "user",
    "methods": {},
    "version": 1
  }
}