{
  "contractName": "Simple3",
  "abi": [
    {
      "inputs": [
        {
          "internalType": "uint256",
          "name": "_num",
          "type": "uint256"
        }
      ],
      "stateMutability": "nonpayable",
      "type": "constructor"
    },
    {
      "anonymous": false,
      "inputs": [
        {
          "indexed": false,
          "internalType": "bool",
          "name": "resultTrue",
          "type": "bool"
        }
      ],
      "name": "OnlyTrue",
      "type": "event"
    },
    {
      "inputs": [],
      "name": "deployedTime",
      "outputs": [
        {
          "internalType": "uint256",
          "name": "",
          "type": "uint256"
        }
      ],
      "stateMutability": "view",
      "type": "function",
      "constant": true
    },
    {
      "inputs": [],
      "name": "num",
      "outputs": [
        {
          "internalType": "uint256",
          "name": "",
          "type": "uint256"
        }
      ],
      "stateMutability": "view",
      "type": "function",
      "constant": true
    },
    {
      "inputs": [
        {
          "internalType": "bool",
          "name": "trueOrFalse",
          "type": "bool"
        }
      ],
      "name": "noFalse",
      "outputs": [],
      "stateMutability": "nonpayable",
      "type": "function"
    },
    {
      "inputs": [],
      "name": "return5",
      "outputs": [
        {
          "internalType": "uint256",
          "name": "",
          "type": "uint256"
        }
      ],
      "stateMutability": "pure",
      "type": "function",
      "constant": true
    },
    {
      "inputs": [],
      "name": "return5In10mins",
      "outputs": [
        {
          "internalType": "uint256",
          "name": "",
          "type": "uint256"
        }
      ],
      "stateMutability": "view",
      "type": "function",
      "constant": true
    }
  ],
  "bytecode": "0x608060405234801561001057600080fd5b5060405161050338038061050383398181016040528101906100329190610081565b8060008190555042600181905550506100ae565b600080fd5b6000819050919050565b61005e8161004b565b811461006957600080fd5b50565b60008151905061007b81610055565b92915050565b60006020828403121561009757610096610046565b5b60006100a58482850161006c565b91505092915050565b610446806100bd6000396000f3fe608060405234801561001057600080fd5b50600436106100575760003560e01c806308546dd41461005c5780631c42580d1461007a578063461ac019146100965780634e70b1dc146100b45780639d41579d146100d2575b600080fd5b6100646100f0565b60405161007191906101f3565b60405180910390f35b610094600480360381019061008f919061024b565b61014b565b005b61009e6101c5565b6040516100ab91906101f3565b60405180910390f35b6100bc6101cb565b6040516100c991906101f3565b60405180910390f35b6100da6101d1565b6040516100e791906101f3565b60405180910390f35b600061025860015461010291906102a7565b421015610144576040517f08c379a000000000000000000000000000000000000000000000000000000000815260040161013b9061035a565b60405180910390fd5b6005905090565b8061018b576040517f08c379a0000000000000000000000000000000000000000000000000000000008152600401610182906103c6565b60405180910390fd5b7f7f7c164d314bdf2ae8ad5b7081fc1e0939687df4e7d4a678b429ba11a40eacc6816040516101ba91906103f5565b60405180910390a150565b60015481565b60005481565b60006005905090565b6000819050919050565b6101ed816101da565b82525050565b600060208201905061020860008301846101e4565b92915050565b600080fd5b60008115159050919050565b61022881610213565b811461023357600080fd5b50565b6000813590506102458161021f565b92915050565b6000602082840312156102615761026061020e565b5b600061026f84828501610236565b91505092915050565b7f4e487b7100000000000000000000000000000000000000000000000000000000600052601160045260246000fd5b60006102b2826101da565b91506102bd836101da565b9250827fffffffffffffffffffffffffffffffffffffffffffffffffffffffffffffffff038211156102f2576102f1610278565b5b828201905092915050565b600082825260208201905092915050565b7f3130206d696e73206973206e6f74207061737365642079657421000000000000600082015250565b6000610344601a836102fd565b915061034f8261030e565b602082019050919050565b6000602082019050818103600083015261037381610337565b9050919050565b7f4e6f2066616c7365210000000000000000000000000000000000000000000000600082015250565b60006103b06009836102fd565b91506103bb8261037a565b602082019050919050565b600060208201905081810360008301526103df816103a3565b9050919050565b6103ef81610213565b82525050565b600060208201905061040a60008301846103e6565b9291505056fea26469706673582212204aff13669d9637bf6719b0f3fd1307306177713fd0892515b333c2ca6848b90764736f6c634300080d0033",
  "immutableReferences": {},
  "source": "// SPDX-License-Identifier: GPL-3.0\npragma solidity >=0.7.0 <0.9.0;\n\ncontract Simple3 {\n\n    event OnlyTrue(bool resultTrue);\n    uint public num;\n    uint public deployedTime;\n    constructor(uint _num) {\n        num = _num;\n        deployedTime = block.timestamp;\n    }\n\n    function noFalse(bool trueOrFalse) public {\n        require(trueOrFalse,\"No false!\");\n        emit OnlyTrue(trueOrFalse);\n    }\n    function return5() public pure returns(uint) {\n        return 5;\n    }\n    function return5In10mins() public view returns(uint) {\n        require(block.timestamp >= deployedTime + 10 minutes, \"10 mins is not passed yet!\");\n        return 5;\n    }\n\n}\n",
  "sourcePath": "D:\\sol\\truffleExample\\contracts\\Simple3.sol",
  "compiler": {
    "name": "solc",
    "version": "0.8.13+commit.abaa5c0e.Emscripten.clang"
  },
  "schemaVersion": "3.4.15",
  "updatedAt": "2023-09-08T07:34:25.884Z",
  "networkType": "ethereum",
  "devdoc": {
    "kind": "dev",
    "methods": {},
    "version": 1
  },
  "userdoc": {
    "kind": "user",
    "methods": {},
    "version": 1
  }
}