{
  "contractName": "Simple4",
  "abi": [
    {
      "anonymous": false,
      "inputs": [
        {
          "indexed": true,
          "internalType": "address",
          "name": "from",
          "type": "address"
        },
        {
          "indexed": false,
          "internalType": "uint256",
          "name": "value",
          "type": "uint256"
        }
      ],
      "name": "FromWho",
      "type": "event"
    },
    {
      "inputs": [],
      "name": "num",
      "outputs": [
        {
          "internalType": "uint256",
          "name": "",
          "type": "uint256"
        }
      ],
      "stateMutability": "view",
      "type": "function",
      "constant": true
    },
    {
      "stateMutability": "payable",
      "type": "receive",
      "payable": true
    },
    {
      "inputs": [
        {
          "internalType": "uint256",
          "name": "_num",
          "type": "uint256"
        }
      ],
      "name": "Setnum",
      "outputs": [],
      "stateMutability": "nonpayable",
      "type": "function"
    },
    {
      "inputs": [
        {
          "internalType": "uint256",
          "name": "_num",
          "type": "uint256"
        }
      ],
      "name": "Setnum2",
      "outputs": [],
      "stateMutability": "payable",
      "type": "function",
      "payable": true
    }
  ],
  "bytecode": "0x608060405234801561001057600080fd5b506102ab806100206000396000f3fe6080604052600436106100385760003560e01c80634e70b1dc146100445780634f8db82c1461006f578063d17051a91461008b5761003f565b3661003f57005b600080fd5b34801561005057600080fd5b506100596100b4565b604051610066919061017f565b60405180910390f35b610089600480360381019061008491906101cb565b6100ba565b005b34801561009757600080fd5b506100b260048036038101906100ad91906101cb565b61015c565b005b60005481565b34670de0b6b3a764000014610104576040517f08c379a00000000000000000000000000000000000000000000000000000000081526004016100fb90610255565b60405180910390fd5b806000819055503373ffffffffffffffffffffffffffffffffffffffff167fc67ed69859126c87db90503d0991841d61f8772739cfa02699d8888b7004001234604051610151919061017f565b60405180910390a250565b8060008190555050565b6000819050919050565b61017981610166565b82525050565b60006020820190506101946000830184610170565b92915050565b600080fd5b6101a881610166565b81146101b357600080fd5b50565b6000813590506101c58161019f565b92915050565b6000602082840312156101e1576101e061019a565b5b60006101ef848285016101b6565b91505092915050565b600082825260208201905092915050565b7f4d75737420426520312065746865720000000000000000000000000000000000600082015250565b600061023f600f836101f8565b915061024a82610209565b602082019050919050565b6000602082019050818103600083015261026e81610232565b905091905056fea2646970667358221220790900aecf2d3a791d791411ec81b51584a1b123d5f08c5d50416ead593ae96d64736f6c634300080d0033",
  "immutableReferences": {},
  "source": "// SPDX-License-Identifier: GPL-3.0\npragma solidity >=0.7.0 <0.9.0;\n\n\ncontract Simple4 {\n\n    uint public num;\n    event FromWho(address indexed from, uint value);\n    receive() external payable {\n\n    }\n\n    function Setnum(uint _num) public {\n        num = _num;\n    }\n\n    function Setnum2(uint _num) public payable {\n        require( 1 ether == msg.value, \"Must Be 1 ether\");\n        num = _num;\n        emit FromWho(msg.sender, msg.value);\n    }\n\n}",
  "sourcePath": "D:\\sol\\truffleExample\\contracts\\Simple4.sol",
  "compiler": {
    "name": "solc",
    "version": "0.8.13+commit.abaa5c0e.Emscripten.clang"
  },
  "schemaVersion": "3.4.15",
  "updatedAt": "2023-09-08T07:34:25.666Z",
  "networkType": "ethereum",
  "devdoc": {
    "kind": "dev",
    "methods": {},
    "version": 1
  },
  "userdoc": {
    "kind": "user",
    "methods": {},
    "version": 1
  }
}